:100000000C94F0130C9418140C9418140C941814E9
:100010000C9418140C9418140C9418140C941814B0
:100020000C9418140C9418140C94031D0C94751D46
:100030000C9418140C9418140C9418140C94181490
:100040000C9418140C9439230C9418140C94181450
:100050000C9418140C9418140C9418140C94FC247C
:100060000C9418140C9418140C9418140C94181460
:100070000C9418140C9418140C9418140C94181450
:100080000C9475240C9418140C9418140C941814D3
:100090000C9418140C9418140C9418140C94181430
:1000A0000C9418140C9418140C941814401643163D
:1000B000461649164C164F16521655165816F0F895
:1000C0009C8E8783878E9CF8F00000FEFF0303035D
:1000D0000303070EFCF80000FEFF030303030307FE
:1000E0000EFCF80000FFFF00000000000000FFFF12
:1000F0000000FEFF8383838383C7EE7C380000F813
:10010000FC0E07030303070EFCF800003F7FE0C06E
:100110008080C0E07F3FFFFF01010101010101FF7D
:10012000FF0000FFFF0C0C0C0C1C3E77E3C100002D
:100130007FFFC0C0C0C0C0E0703F1F00001F3F7005
:10014000E0C0C0C0E0703F1F00007FFFC1C1C1C15F
:10015000C1E3773E1C00001F3F70E0C0C0C0E070EC
:100160003F1F000000000001FFFF01000000D5F06C
:100170008D14A1C881CFD9F1AF2000640F00FC021B
:100180008282E282820282C2E2C282024202E2A24F
:10019000A2A2C202E2A2A2A222022222E2222202FF
:1001A0000202828282820202E2A2A2E2024202E20F
:1001B0002222222202E2222222E202E2428202E2FF
:1001C000022222E22222022222E2222202E24282AF
:1001D00002E202E2020202E202E2A2A2A22202FC85
:1001E00000001F2020212321202020202320202048
:1001F00022202322222221202322222222202020E8
:1002000023202020202020202020202023202023E5
:1002100020222023222222222023222222232023C2
:1002200020202123202020232020202222232222BC
:1002300020232020212320232222222320232222A4
:100240002222201F0000FA901C91340077810005C3
:100250009134901C0077810005912F901C923401FD
:10026000F4902891288200FA912F923400F4818230
:10027000000591288000FA901F912B00FA90289198
:100280002F923400F4818200058001F4912F902692
:10029000923400F481820005902600FA912F923466
:1002A00000F4818200059128902B00FA912B00FA2E
:1002B0009028913200FA9034912B029A8100539148
:1002C00028902600FA912F9028923400F481820021
:1002D000059128902B00FA912B00FA9028912F92EB
:1002E0003400F4818200058001F4912F902692342D
:1002F00000F481820005902600FA912F9234902814
:1003000000F48182000591288000FA9021912B0051
:10031000FA932494269028913200778384000593E1
:1003200024942600778384000593249034912F949D
:10033000269234953900F483840005932494308008
:1003400000F48384000590349324942F00F4838474
:1003500000059034913B932492289528944000FA0C
:10036000952F00A683004E850005932A95288200CC
:10037000FA921F952B007D800029830053903B93B8
:10038000249228952F00F48500058200A68300534F
:10039000932A00FA952F923400A683004E8285009E
:1003A0000593249121943B922A954000FA912F00C5
:1003B000A68283004E810005922A9128932600FA96
:1003C000912B00A682005392249328913200F4824C
:1003D0000005922E932B912B01A00053932B007DAF
:1003E00080002981820053903492249128943B9379
:1003F0002A952800FA912F00A68283004E810005DD
:10040000922A91288500FA951F912B007D80002962
:10041000820053903B92249526912F934000F481C3
:1004200000058500A6820053922A00FA9534913483
:1004300000A68200539224943B00F481000591327F
:10044000953E00A682004E81850005922A912F9547
:100450003B00F481850005912E953A00A682004E5E
:10046000818500059224912D953900F481828500C3
:1004700005912B9537922E01A08200539224007D86
:100480008083002985004E820005903492249128B3
:100490009328943B952A00FA932F913400A68285E5
:1004A000004E81830005922A912800FA931F912B18
:1004B000007D800029820053903B92249328912F45
:1004C000954000F48100058300A6820053922A0023
:1004D000FA9328912F00A682004E81000592249461
:1004E0003B912A932600FA932F00A68182004E8327
:1004F0000005912A9328922800FA932B921C007DE4
:10050000808500298100539124922893329026956A
:100510002A00F48081850005902E922B932B91392F
:1005200000FA953B00A681004E850005953B914061
:10053000924700A68083004E818285000590249119
:100540002693289234943B952A00FA9128932F0001
:10055000A68085004E830005902A93288100FA9397
:100560002B007D8200298000539128923B90249398
:100570002F954000538100A1830005828500A6804D
:100580000053902A00F4800005902400F4800005B8
:10059000911C9334904C92409424955801A084006F
:1005A00053942A00FA911E9336904E9242955A0027
:1005B000A6840053942400F4840005942400F48459
:1005C0000005942A911F9337904F9243955B01A0A9
:1005D0008400539130903C942492249330954801A8
:1005E000A0840053942A00FA921D007D921F0029D6
:1005F00084005394249224913400F4840005942EB2
:1006000001A08400539424922200F48400059424D1
:100610009222903C932A954000F4810005913092FB
:100620002400A683840053932A8200FA922400A611
:1006300081830053913C92409324942400FA941FA8
:10064000913700A6830053932A91348400FA91379E
:10065000007D820029830053942293249130903CA2
:10066000922A954000FA942400A681828300539137
:1006700034922A00FA913700A682005391409224C6
:100680009424933C00F4820005922E8401A0820001
:100690005392249426007D81830077828400059103
:1006A000249230933094489024955401A0800053B4
:1006B000902A00A682830053923793379143941F68
:1006C000954F00A6800053902400F48000059024EC
:1006D00000A6818283004E800005923693369142B7
:1006E000902A941E954E01A08081828300539140F0
:1006F000903B922493289434954C00FA932F00A6B3
:1007000082004E830005922A932800FA9326007DEA
:100710008184002982005392249328912F942600EB
:10072000F48182840005922E8300FA91439347005E
:10073000778183000591439347002982004E81838E
:1007400000059224912F934394260077830005930C
:1007500043007781828384000592249034934391EF
:100760003B942A954700FA902F00A6828384850047
:100770004E800005922A902800FA932D902B00A617
:100780008200539224933290329426952A00F48268
:10079000848500059224932B902B00F4820005920F
:1007A0002A01A080820053902892249328913B94A0
:1007B0002A954000FA902F933400A68284004E8040
:1007C000830005922A902800FA931F902B00A6829E
:1007D000005392249328902F942600F48082840062
:1007E00005922E8301A0820053922400F48200051A
:1007F000931C90349234944C9124955801A081001C
:1008000053912A00FA931E90369236944E954200E8
:10081000A6810053912400F4810005912400F48105
:100820000005912A931F90379237944F954301A06A
:10083000810053903C912493249230943095480148
:10084000A0810053912A00FA931D007D931F84001C
:100850002981005394349124932400F4810005915C
:100860002E01A081840053943C9124932200F481B2
:10087000000591249322903C922A00FA932400A62A
:1008800081820053912A8300FA932400A6810053A9
:1008900091409224932400F48100059140931F001D
:1008A000A682004E810005922A83007D84007D91FE
:1008B0004300A682004E810005922493229140902D
:1008C0003C942A00FA932400A68182840053914329
:1008D000922A00F4810005914800A682004E810012
:1008E00005922491439426932400F4828400059277
:1008F0002E8300A68100FA82005392249426912A26
:10090000007D85007781828400059326954A913E7B
:1009100092249056943E01A0820053922A00FA93AA
:100920002100A68200539224932600F481000591B1
:1009300045932D00A6820053922A933000FA83003B
:100940007D8085002981820053932B9037913795C4
:100950004F9224945B01A0820053922A00A68081CA
:10096000005390369136944E932A955A00A68200F1
:1009700053922400F4820005922E00A68081005339
:1009800090349134944C9328955800A68200539249
:100990002400F4820005922400F480810005903246
:1009A0009132944A9326955600A6820053922A01CA
:1009B000A0808182005390319131922493259449F3
:1009C000952601A080818285005390309130922A33
:1009D00093249448955400F480810005903191311E
:1009E00094499325955500A682004E80810005927A
:1009F0002490329132944A9326952600F480818285
:100A0000830005922490339133944B95279357009C
:100A1000F480818200059034913B92249328943491
:100A2000954C00FA932800A682004E0005922A9366
:100A30002800FA932B007D8400298200539224938E
:100A400032942F952600F4840005933400A6828505
:100A50000053922A00FA942F932895340053830070
:100A60002980002982004E848500059034922493C9
:100A700028913B942A954000FA00A68284004E00FB
:100A800005922A9328942100FA932B9421007D80CB
:100A90000029820053903B92249428933200F482E0
:100AA0000005922E9428932B00FA944A00A600FA8F
:100AB00082830053922893289124953B00FA932F28
:100AC00000A681004E830005912A932800FA921F08
:100AD000932B007D80002981005391249228932F2D
:100AE000902600F48300058200A680810053903B8D
:100AF000912A924000F4808200059026932F923B29
:100B000000A681004E828384000591249234953B97
:100B1000902A9326944000FA932F00A68081004EDD
:100B2000830005902A9328912B00FA932B007D8255
:100B30000029800053923B902491289332007780C3
:100B40000005902400778000059024932F912600C3
:100B5000F4808100059024913000F480810005909C
:100B600026912400F4810005904F91249328942825
:100B7000953B00FA904F942F00A681004E8400050B
:100B8000912A9428904F8300FA931F942B00A681FA
:100B9000005391249328942F904F00F484000583F0
:100BA00000A6810053912A904F00FA9326942F00BB
:100BB0007D82002981004E84000592349124953B6A
:100BC000904F932A942800FA902F00A68183004E1C
:100BD000800005912A9028934F8400FA942B902B43
:100BE000934F007D820029810053923B91249428E9
:100BF000903200F4810005912E942B902B934F009E
:100C0000FA9428934F00A600539426934F00A68091
:100C100081005391249028953B934F942A00FA9099
:100C20002F00A68184004E800005912A9028934FC2
:100C300000FA9021942B007D820029810053912499
:100C40009028942F922600F4840005934E9034004F
:100C5000A681820053903B912A9234934000F48005
:100C6000818300059124942F903B933400F480817C
:100C70008384000591249034953B922A93269440D6
:100C800000FA932F00A68182004E830005912A93DB
:100C900028922B00FA932B007D800029810053902D
:100CA0003B91249228933200F4810005914F9224C5
:100CB000932B00F4820005922B912A00FA922B00CC
:100CC000A68183005391249328943B924F952A0048
:100CD000FA924F932F00A68185004E830005912A3A
:100CE000932800FA932B952B00A68100539124930F
:100CF0002F952F922600F48182850005912E00FA0F
:100D0000932800A6810053952F914F92249326009B
:100D10007D80007782850005903092249134943C48
:100D2000934F952A007D934C00FA934C00298285BD
:100D30000053922A007D934C007D934C007D80816E
:100D40000029820053903C913C9224954000FA90F7
:100D500037934C00A6820053922A9034934C007D26
:100D6000934C007D9037007D934E81850029820051
:100D700053922490269132943C952A00FA934E0087
:100D80007D934E002982850053922A9136007D93EF
:100D90004C007D913700A6820053913E9224933EF1
:100DA000954300F4820005922E9337007D007D93D9
:100DB0003600A682005392249337007D914A850025
:100DC000778200059028953492249128932F943BA4
:100DD00000FA904A00A68283004E0005922A9028CD
:100DE000934C00FA9045932B007D85002982005397
:100DF000953B9224932F914000F482830005922426
:100E000000F4820005922A00FA932800A682004E80
:100E100000059224943B932A00FA00A68082830066
:100E20004E0005922A9028932B00FA902B00A68260
:100E3000005392249328903200F4820005922E9061
:100E40002B007D932B007D932B00A68200539224D0
:100E50009326007D8185002980004E820005902820
:100E6000913492249328943B952A00FA902F00A65F
:100E70008285004E800005922A90288300FA932BE9
:100E8000902B007D810029820053913B9224932F67
:100E9000902F954000F480820005922400F4820097
:100EA00005922A933400FA902F00A682004E80000B
:100EB000059224943B902A933400FA932F00A68045
:100EC00082004E830005902A932800FA932B007D20
:100ED0008185002980005390249134933292269585
:100EE0002A00F48082850005902E932F9134923948
:100EF00000FA953B00A680004E850005904F952492
:100F0000007D904F00778500059524903B943B91A0
:100F10004F922A932800FA914F00A68285004E0036
:100F200005922A9128934F00FA951F912B007D93EB
:100F30004F002982005392249528912F934F00F45B
:100F4000818200059224934F8500F4820005922A45
:100F5000934F00FA9526912F9334007D904F0029EE
:100F600082004E8183000591349224943B904F93EC
:100F70002A952800FA902F00A68283004E80000553
:100F8000922A9028934F8500FA952B902B007D8113
:100F90000029820053913B9224952890329340007F
:100FA000F4820005922E952B902B00FA954C00A60A
:100FB0008200539224952600A680004E8200059060
:100FC0002892249528943B00FA902F00A682004E88
:100FD000800005922A902800FA9521902B007D81AF
:100FE00083002982005392249528902F91269334D0
:100FF00000F480830005953400A681820053903B65
:10100000912A9534924000F480820005932F903B02
:10101000923400A681004E80828300059124903492
:10102000943B922A9526934000FA952F00A6818240
:10103000004E850005912A9528922B00FA952B00E9
:101040007D800029810053903B91249228953200A5
:10105000F4810005912E952B8200FA922B00A68137
:1010600000539124922B007D002985004E810005BC
:10107000952891249228933B944F00FA944F952FF2
:1010800000A681004E850005912A9528944F00FA0C
:10109000922B952B944F00A68100539124922F956B
:1010A0002F944F00F4850005944F00A681005391C2
:1010B0002A9228944F00FA952F9226007D944F8013
:1010C000002981004E850005903091249234933C94
:1010D000944F952A00FA944C00A681850053912ADA
:1010E000944C007D944A00FA944A80820029810041
:1010F00053903C913C9524924000F4850005952E38
:1011000090378400FA903400A6850053944F9524BC
:101110009037007D81820077850005952490269187
:1011200032933C944E922A0177944C002982850098
:1011300053922A9136944E00FA913700A6820053BA
:10114000913E9224943E954300FA944E00A682006C
:1011500053922A943600FA9437007D8185002982C3
:1011600000539028913492249328942F953B00FAB1
:10117000902F00A68284004E800005922A902800BD
:10118000FA902B007D810029820053913B9224909C
:101190002F9340942600F48082840005922E943987
:1011A00000FA904C00A684004E8000059028942FF1
:1011B00000A682004E8400059224953B902A941C40
:1011C00000FA00A68082004E0005902A9228942BF7
:1011D00000FA922B00A680005390249428923200AB
:1011E000FA922B007D942B002980004E0005902A56
:1011F000942B00F480000590249426007D818300C8
:101200002982004E800005922891349024942895DC
:101210003B932A00FA922F00A68083004E8200059D
:10122000902A92288400FA942B922B007D81002929
:10123000800053913B9024942F922F934000F48090
:10124000820005902400F4800005902A943400FA6E
:10125000922F00A680004E8200059024953B922A92
:10126000943400FA942F00A68082004E84000590EA
:101270002A942800FA942B007D8183002980005352
:10128000902491349432922A00F480820005904C8C
:101290009226912E8400FA904C00A68182005391F0
:1012A000269224904A9326942A00F482838400058F
:1012B000808185E080400000000000000000C0C088
:1012C000C0C0000000000000C0C0C0C0C0000000DE
:1012D0000000000080C0C0C0E0E0E0C0800000C0AE
:1012E000C0C0C000000080C0C0C00000000080C0BE
:1012F000C0C0CCCFCFCF0F07010E82811D3B03575B
:10130000478FCFEFFF371A3C7E7F77FEFCF8F0E087
:10131000C00000000000000000000000000000000D
:10132000000000000000C0C0C0E0F0F8FCFEFF00BC
:1013300006FCE00EFCC00000000000000000FFFF03
:10134000FFFF00000000F0FE7F0F7FFFFFFCC000EA
:101350000000FEFFFFFF030100000001010000FF8D
:10136000FFFFFFF8FCFFFFF3C1000000001E3F7FFE
:101370007FFDF8F0F1E1C000000FCFE0F0F8FC7E57
:101380007FBFDFEFF77B39FCE0E1C1C0E1B3070FBE
:101390001F7FFEFCF8F0E0C08000000000000000AD
:1013A000000000000000030303070F1F3F7FFF0042
:1013B000603F07703F03000000000000383C3F3FE3
:1013C0001F0F0000383F1F07070707071F3F3F3E5B
:1013D0000000030F1F9FBEB8B8B8B8989800003F30
:1013E0003F3F3F0300038FBFBFBF3800001C1C38C6
:1013F0003838383F1F1F0F0000000707030100C6E1
:10140000CBC3C3030086EFEF1F3F2F0F1F03000066
:1014100080C0F0F97BB78FFFFFFFFCF8F0200000E1
:1014200000000000000000000000000000000000BC
:1014300000000000000000000000000000000000AC
:1014400000000000000000000000000080C0E0F08C
:10145000F0F8FC7E3F1F0C040404000000000000B4
:101460000070FCFEFF070303FFFFFFFC0000FFFF0F
:10147000FFFF63E3FFFFBF1E000000E0C0C3F1E316
:10148000DEDE8F07070F098D8D0501039EDCCCE49E
:10149000F7FBFDFE7F3F1F0F070303010000000065
:1014A000000000000000000000000000000000003C
:1014B000000000000000000000000000000000002C
:1014C00000000080C0E0F0F8FCFEFE7F3F1F0F1719
:1014D0001B1DDCF6FDFEFF7F9FC7BBFCFFFF8300EB
:1014E0000000010307E7E6E6E7E7E3E0E0E0C7879F
:1014F000070700E1E7E7E7E6E0E0E0E1030FEFEFF1
:10150000EFE7EBE8EFEFEEE70BEDEEEFEFEFEFE7F6
:10151000E3E3E10000E0E0E0E0E0E0E0E0E0000044
:10152000C0E0E0E0E0E0E0E0E0E0C000000000005B
:101530000000000000000000000080C0E0F0F8FCA7
:10154000FCFE7FBFDFEFF7FBF9FCFEFEF880E4F85E
:10155000FCFFFF3F0F07190E0F0F8787878F3F365E
:10156000C080000000FFFFFFFF383879FFFFFFC792
:10157000800000FFFFFFFF783030300000000000E7
:1015800000FFFFFFFF00000000000000FFFFFFFF63
:101590000000000000FFFFFFFF30303000000000BF
:1015A000FFFFFFFFFF70F0FFFFFF1F0F00000000B5
:1015B00000000000000080C0A0F4E143079F3F7FCF
:1015C000FFFCF9F3E7C383070FC7F7F9FEFF7F9F1F
:1015D000CFF3CCFEFEE8D8D4CF8F8DB3A387860F90
:1015E00005878080809F9F9F9F9C9C9C9F9F8F0FC3
:1015F0008380809F9F9F9F9C18181C1C00000000E8
:10160000001F1F1F1F000000000000001F1F1F1FE2
:1016100000000000001F1F1F1F1C18181C1C0000CA
:101620001F1F1F1F1F00031F1F1F1E180000000089
:10163000000000000000070107252E7E7C7CB878A2
:101640003831A3C78F1F27FCBFFF7FFFFFF1E6EFF5
:10165000CFC783870F0F1B1FBFFE3FFFFFBFFFFFDB
:101660006FFFDF7FFFFFFFBFFEFFF73FDFE7B9FE42
:10167000FFFFFF803E12122E003C2A2A22003E224B
:10168000221C003E2A2A3C001E20203E003C222A2A
:101690003A0020100C02003E081422000204380414
:1016A00002001E20203E003E12122C003C12123E70
:1016B000003E02023C00480F00FC020202C22292DD
:1016C00092B2022212D2B2F2026212D232C242A20A
:1016D0006212126212F2525212020202020202C29A
:1016E000221212E2026212F20282621A026212F202
:1016F000525212026212F252B20202020202FC00C2
:10170000001F202020212A2A2720222221202023D6
:1017100020222221202020232220202223222222B4
:1017200021202020202020212222212020202023AF
:101730002120202020222322222221202223222095
:101740002126282820201F008040000000000000E3
:101750000000000000BE8A8A9AAE00BEA2A2A2BE0D
:10176000008284B8848200BE8A8A8ABE00BEA0A09D
:10177000A08000BE8A8A8A8200BE202020803EA0EF
:10178000A0A0BE802E2A2AAABA80BE8808883E0061
:101790002000A0002000A000A080A080A000A00049
:1017A0002000A000200020002000200020002000B9
:1017B00024322A24002CAAAABA001CA2A2A21C002D
:1017C0000000000000000000000000000000000019
:1017D0000000000000EB8A8AEA0E0000E02F2020C3
:1017E000E00FE2A2A6AB200F02E2A2AFA0E8080F32
:1017F000E888402F082A2AEE202F02E2428F00E0DC
:1018000000EF202020C0000F02020200000F080895
:1018100008000F0808080F000B0A0A0A0E000F0242
:1018200002020F0008000800080008000800080075
:1018300008000800000B4A2AAE4007C8A8A8A70065
:101840000000000000000000000000000000000098
:101850000000000000F828282B0800F8838282FA94
:1018600003F883808000F8808083000000FB202044
:1018700023F801FA888A8AFB02FA808380F801BB88
:10188000A8ABAAEA02FBA8AAA88A8200820082006A
:101890008200820082008200820082008200820038
:1018A0008200820082008200820082008200820028
:1018B0008200820082008203820200BAAAAAFB0090
:1018C0000000000000000000000000000000000018
:1018D0000000000000BE8A8A8A8200BEA0A0A0800C
:1018E0003EA0A0A0BE802EAAAAAABA803E88888860
:1018F000BE802080A080A0802080200020802080CA
:10190000A080A080200020002000200020002000D7
:1019100020002000200020002000200020002000C7
:1019200020002000200020002000200020002000B7
:101930002000200020002000200000BE2A2ABA003B
:101940000000000000000000000000000000000097
:1019500000000000002BAAAAEA0E0000E02F2020C1
:10196000E00FE2A2A6AB200F0202E28F4028082F70
:1019700028E8202F08EA4A8E00EF02E2222F20C03A
:10198000000F000800080008000800080008000810
:101990000008000800080008000800080008000807
:1019A00000080008000800080008000800080008F7
:1019B000000800080008000800080023A2A2EF00A9
:1019C0000000000000000000000000000000000017
:1019D00000000000000A0AFA0B0800F8432242FA4D
:1019E00003F88B8888F8000000F82B28293A00FAC1
:1019F0002A2B2AFA008B88F8898B00FB2A2A6ABBDB
:101A000000820082008200820082008200820082C6
:101A100000820082008200820082008200820082B6
:101A200000820082008200820082008200820082A6
:101A3000008200820082008200820092CAAA930083
:101A40000000000000000000000000000000000096
:101A5000000000000032223E02003E0A0A0A3E0058
:101A60003E22222222003E081422002E2A2A2A3A4E
:101A700000003E2222223E003E0A0A1A2E00003EAC
:101A80002A2A2A1C003E2A2A2A220002023E020298
:101A90000002023E0202003E2A2A2A22003E0A0AD0
:101AA0001A2E00200020002000200020002000200E
:101AB00000200020002000200020002000023E0026
:101AC0000000000000000000000000000000000016
:101AD0000000000000000000000000000000000006
:101AE00000000000F8282828F80000000000000886
:101AF00008F8080800F8888888F80000000000004E
:101B0000F88888888800F8888888F800F8102040CD
:101B1000F8000808F80808008888F8888800F81095
:101B20002040F800F8808080F800F8A8A8A8880075
:101B300000000000000000000000000000000000A5
:101B4000000000000000000000000A101E3F7FFFA0
:101B5000FEFEFF7F3F1E00000000010100000000AC
:101B60003078FCFEFFFFFEFC78300000000103032C
:101B70000100000030787836FFFF367878300000BA
:101B80000002030302000000387CFE7FFFFF7FFE9F
:101B90007C38000000020303020000000A10F0FC81
:101BA0001C0E03030E1CFCF03F3F0303030303035F
:101BB0003F3F0C8EC3C3C3C3C3E37E3C3F3F3130C2
:101BC0003030303030300C0E0303C3C3C3E3FE3C6F
:101BD0000C1C3830303030391F0FC0E070381C0E0C
:101BE000FFFF00000303030303033F3F03033F3FE3
:101BF000333333333373E3C30C1C38303030303875
:101C00001F0FFCFEC3C3C3C3C3C38E0C0F1F3830EA
:101C1000303030391F0F0303030383C3E3733F1FC7
:101C2000000000003F3F000000003CFEE3C3C3C3D0
:101C3000C3E3FE3C0F1F3930303030391F0F3C7E7C
:101C4000E3C3C3C3C3C3FEFC0C1C38303030303890
:101C50001F0F1C0EFFFF00FEFF03FFFE00003F3FB3
:101C6000001F3F303F1F000000000303FFFF03037E
:101C70000C1C383030381F0F0000FCFE0303030338
:101C80000303FEFC0F1F383032361C183F37FFFFAE
:101C9000E0F0B81C0E0703003F3F000103070E1CD5
:101CA00038301818E058B44AB6E93729B7A9D7C967
:101CB000C9D7A9B72937E9B64AB458E0FF926D925F
:101CC0006DC33CFF0000C7C793397CFEFF3CC36D6A
:101CD000926D92FFFF24DB24DB2FD82BDA2AD72743
:101CE00027D72ADA29D82FDB24DB24FFE0180402C7
:101CF00002010101010101010101010101010102D2
:101D0000020418E0FF0000000000000000000000D6
:101D10000000000000000000000000FFFF000000C5
:101D200000000000000000000000000000000000B3
:101D3000000000FF804000000000000000000000E4
:101D40000000000000000000000000000000000093
:101D50000000000000000000000000000000000083
:101D60000000000000000000000000000000000073
:101D70000000000000000000000000000000000063
:101D80000000000000000000000000000000000053
:101D90000000000000000000000000000000000043
:101DA0000000000000000000000000000000000033
:101DB0000000000000000000000000000000000023
:101DC0000000000000000000000000000000000013
:101DD0000000000000000000000000000000000003
:101DE00000000000000000000000000000000000F3
:101DF00000000000000000000000000000000000E3
:101E000000000000000000000000000000000000D2
:101E100000000000000000000000000000000000C2
:101E200000000000000000000000000000000000B2
:101E300000000000000000000000000000000000A2
:101E40000000000000000000000000000000000092
:101E50000000000000000000000000000000000082
:101E60000000000000000000000000000000000072
:101E70000000000000000000000000000000000062
:101E80000000000000000000000000000000000052
:101E90000000000000000000000000000000000042
:101EA0000000000000000000000000000000000032
:101EB0000000000000000000000000000000000022
:101EC0000000000000000000000000000000000012
:101ED0000000000000000000000000000000000002
:101EE00000000000000000000000000000000000F2
:101EF00000000000000000000000000000000000E2
:101F000000000000000000000000000000000000D1
:101F100000000000000000000000000000000000C1
:101F200000000000000000000000000000000000B1
:101F30000000000000000000008040A06090709051
:101F4000709070909070907090709060A040800041
:101F500000008040A06090709070907090907090A1
:101F60007090709060A040800000008040A0609061
:101F70007090709070909070907090709060A04091
:101F8000800000008040A0609070907090709090F1
:101F900070907090709060A040800000008040A021
:101FA0006090709070907090907090709070906051
:101FB000A040800000000000FE25DB24DB3EC3F2D1
:101FC0000B0A7D7C3C9DCAEBF2C33EDB24DB25FE85
:101FD00000FE25DB24DB3EC3F20B0A7D7C3C9DCA60
:101FE000EBF2C33EDB24DB25FE00FE25DB24DB3EDB
:101FF000C3F20B0A7D7C3C9DCAEBF2C33EDB24DBC3
:1020000025FE00FE25DB24DB3EC3F20B0A7D7C3C73
:102010009DCAEBF2C33EDB24DB25FE00FE25DB245C
:10202000DB3EC3F20B0A7D7C3C9DCAEBF2C33EDB78
:1020300024DB25FE00000000FF49B649B6FC83BF43
:10204000A0A07C7C7973A7AF9F83FCB649B649FFFB
:1020500000FF49B649B6FC83BFA0A07C7C7973A77A
:10206000AF9F83FCB649B649FF00FF49B649B6FCAD
:1020700083BFA0A07C7C7973A7AF9F83FCB649B6D1
:1020800049FF00FF49B649B6FC83BFA0A07C7C791C
:1020900073A7AF9F83FCB649B649FF00FF49B64915
:1020A000B6FC83BFA0A07C7C7973A7AF9F83FCB6EE
:1020B00049B649FF000008080F8ACDCAEDEAEDEAEB
:1020C000EDEAEDEAEAEDEAEDEAEDEAEDCACD8A0FD6
:1020D000080F8ACDCAEDEAEDEAEDEAEDEAEAEDEAAB
:1020E000EDEAEDEAEDCACD8A0F080F8ACDCAEDEA16
:1020F000EDEAEDEAEDEAEAEDEAEDEAEDEAEDCACD68
:102100008A0F080F8ACDCAEDEAEDEAEDEAEDEAEAB8
:10211000EDEAEDEAEDEAEDCACD8A0F080F8ACDCAE5
:10212000EDEAEDEAEDEAEDEAEAEDEAEDEAEDEAEDF7
:10213000CACD8A0F080800000000240027002A00EA
:102140002D00300004080201104080401020408023
:1021500040800802040180402010020110801020FD
:1021600040402000000000250028002B002E0031F8
:10217000000404040404030405020202020403022E
:10218000020202060606060606040402020204040F
:10219000080B000202020100090400000102020013
:1021A0000005240010010524010101042402060594
:1021B0002406000107058103100040090401000204
:1021C0000A000000070502024000000705830240E4
:1021D00000000403090412010002EF020140412340
:1021E000368000010102030141726475696E6F203F
:1021F0004C4C430041726475696E6F204C656F6E84
:102200006172646F0006011501260137014A015D04
:1022100001720188019F01B801D201EE010B022A6F
:10222000024B026E029302BA02E40210033F0370F3
:1022300003A403DC03170455049704DD0427057584
:1022400005C80520067D06E0064907B8072D08A940
:10225000082D09B9094D0AEA0A900B400CFA0CC086
:102260000D910E6F0F5A1053115B1272139A14D402
:102270001520178018F519801B231DDE1EB420A61B
:1022800022B524E4263429A72B402E0031EA33005E
:1022900037453ABC3D68414C456B49C84D68524F83
:1022A00057805C006210111213151617181A1C1DA6
:1022B0001F21232527292C2E3134373A3E41454909
:1022C0004E52575C62686E757B838B939CA5AFB949
:1022D000C4D0DCE9F700000000003E5B4F5B3E3EEF
:1022E0006B4F6B3E1C3E7C3E1C183C7E3C181C57C2
:1022F0007D571C1C5E7F5E1C00183C1800FFE7C366
:10230000E7FF0018241800FFE7DBE7FF30483A0634
:102310000E2629792926407F050507407F05253FA0
:102320005A3CE73C5A7F3E1C1C08081C1C3E7F148C
:10233000227F22145F5F005F5F06097F017F0066D6
:1023400089956A606060606094A2FFA29408047E30
:10235000040810207E201008082A1C08081C2A08DF
:10236000081E101010100C1E0C1E0C30383E383099
:10237000060E3E0E06000000000000005F00000098
:1023800007000700147F147F14242A7F2A122313C6
:1023900008646236495620500008070300001C22DA
:1023A00041000041221C002A1C7F1C2A08083E080C
:1023B000080080703000080808080800006060000D
:1023C00020100804023E5149453E00427F40007201
:1023D000494949462141494D331814127F10274578
:1023E0004545393C4A494931412111090736494996
:1023F0004936464949291E000014000000403400B7
:10240000000008142241141414141400412214086A
:1024100002015909063E415D594E7C1211127C7F22
:10242000494949363E414141227F4141413E7F4930
:102430004949417F090909013E414151737F08081B
:10244000087F00417F41002040413F017F08142266
:10245000417F404040407F021C027F7F0408107F84
:102460003E4141413E7F090909063E4151215E7FBF
:1024700009192946264949493203017F01033F4092
:1024800040403F1F2040201F3F4038403F6314081A
:10249000146303047804036159494D43007F4141AB
:1024A000410204081020004141417F04020102045E
:1024B0004040404040000307080020545478407FCB
:1024C000284444383844444428384444287F385405
:1024D00054541800087E090218A4A49C787F0804AC
:1024E000047800447D40002040403D007F10284497
:1024F0000000417F40007C047804787C0804047864
:102500003844444438FC1824241818242418FC7C2B
:1025100008040408485454542404043F44243C4010
:1025200040207C1C2040201C3C4030403C44281073
:1025300028444C9090907C4464544C4400083641AC
:10254000000000770000004136080002010204028A
:102550003C2623263C1EA1A161123A4040207A3835
:102560005454555921555579412154547841215598
:1025700054784020545579400C1E527212395555EA
:102580005559395454545939555454580000457CC0
:10259000410002457D420001457C40F0292429F09C
:1025A000F0282528F07C545545002054547C547C58
:1025B0000A097F4932494949323248484832324A49
:1025C0004848303A4141217A3A42402078009DA063
:1025D000A07D39444444393D4040403D3C24FF24E3
:1025E00024487E4943662B2FFC2F2BFF0929F62018
:1025F000C0887E090320545479410000447D413055
:1026000048484A32384040227A007A0A0A727D0DE0
:1026100019317D2629292F28262929292630484D98
:102620004020380808080808080808382F10C8ACE7
:10263000BA2F102834FA00007B000008142A142254
:1026400022142A14089500220095AA005500AAAA6F
:1026500055AA55AA000000FF00101010FF00141426
:1026600014FF001010FF00FF1010F010F0141414ED
:10267000FC001414F700FF0000FF00FF1414F40422
:10268000FC141417101F10101F101F1414141F0017
:10269000101010F0000000001F101010101F10107C
:1026A0001010F010000000FF10101010101010108B
:1026B00010FF10000000FF140000FF00FF00001FCB
:1026C00010170000FC04F414141710171414F40469
:1026D000F40000FF00F714141414141414F700F796
:1026E000141414171410101F101F141414F41410C1
:1026F00010F010F000001F101F0000001F14000059
:1027000000FC140000F010F01010FF10FF1414145F
:10271000FF141010101F00000000F010FFFFFFFF5B
:10272000FFF0F0F0F0F0FFFFFF0000000000FFFFFF
:102730000F0F0F0F0F38444438447C2A2A3E147E72
:1027400002020606027E027E026355494163384456
:10275000443C04407E201E2006027E020299A5E72A
:10276000A5991C2A492A1C4C7201724C304A4D4DC5
:10277000303048784830BC625A463D3E49494900AD
:102780007E0101017E2A2A2A2A2A44445F444440C9
:10279000514A444040444A51400000FF0103E08058
:1027A000FF000008086B6B083612362436060F0946
:1027B0000F06000018180000001010003040FF0144
:1027C00001001F01011E00191D1712003C3C3C3C7A
:1027D0000000000000010204081020408000EA27E9
:1027E00011241FBECFEFDAE0DEBFCDBF26E0A6EE9C
:1027F000B1E001C01D92A13EB207E1F711E0A0E0F7
:10280000B1E0EEE6F9E502C005900D92A63EB107F3
:10281000D9F713E1C0EFD3E104C02197FE010E9474
:102820009A28CF3ED107C9F70E9446250C94B52CB3
:102830000C9400006F927F928F929F92AF92BF9202
:10284000CF92DF92EF92FF920F931F93CF93DF937C
:10285000CDB7DEB72D970FB6F894DEBF0FBECDBF54
:1028600043E252E024E232E05A0180E090E0019637
:10287000D5011396BC01F501D080F901F080EC90F0
:10288000EF1450F4FD01C2908F01F501C082F901EF
:10289000E082F801D082FC926F5F7F4F1296653024
:1028A000710549F7F2E0AF0EB11C2E5F3F4F843047
:1028B0009105E9F68FEF9FEF9093330280933202F8
:1028C000FE0131968DE0DF011D928A95E9F79F01A7
:1028D0003E01BEE06B0E711CCF01DC011D92CD01EB
:1028E000A615B705D1F780E090E0BC016D5D7D4F86
:1028F000DB0111966C918F01060F111DD8016C91AF
:102900006F5F6C9302968A30910579F760E070E012
:10291000D9018D919D0190E0681779070CF4BC01F5
:1029200026153705A9F790902402C0902602D09072
:1029300028029C1008C080912A02D81689F0909134
:102940002C02891769F0CD100EC091E080E0309123
:102950002A0220912C02321390E0292F382F05C033
:1029600021E030E002C020E030E08AE0DF011D928B
:102970008A95E9F7DA011C91CF01810F911D810F32
:10298000911DDC010D911C9111970F5F1F4F0D934D
:102990001C934E5F5F4FB2E04D325B0759F7CF019A
:1029A000AE01475F5F4FA12CB12CDC010D911D9151
:1029B000CD010530110519F4AA24A394B12C841774
:1029C000950799F78AE0DF011D928A95E9F78F0153
:1029D00080E090E0AC014D5D5D4FDA0111964C91C5
:1029E00050E0D8014D935D938D0102968A30910598
:1029F00089F789819A810B811C81AC014F5F5F4F00
:102A000040175107A9F4ED80FE804F5F5F4F4E15D0
:102A10005F0571F4EF80F8844F5F5F4F4E155F05DF
:102A200039F4E984FA844F5F5F4F4E155F05B9F0C2
:102A30000197C1F40A301105A9F48D819E810B978D
:102A400089F48F8198850C9769F451E040E089857D
:102A50009A850D9709F050E0852F942F05C081E0ED
:102A600090E002C080E090E09C1015C040912A02E6
:102A7000D41204C050912C02D51651F09D100BC0F9
:102A800001E010E050912C02451300E0A80105C0C0
:102A900041E050E002C040E050E01DE0DF011D9247
:102AA0001A95E9F77F018F01D8011D928D01A615B6
:102AB000B705D1F700E010E0D801AD5DBD4F11962C
:102AC000DC90B9E0BD1530F4DF01AD0DB11D8C9087
:102AD00083948C920E5F1F4F0A30110569F700E056
:102AE00010E0D701ED917D01F0E00E171F070CF407
:102AF0008F01E614F704A9F7A114B10461F000975F
:102B000051F0911005C010923302109232022CC085
:102B100081E090E025C06430710519F482E090E016
:102B20001FC0452B19F083E090E01AC0AB2819F0C4
:102B300084E090E015C0892B19F085E090E010C08A
:102B40006330710519F486E090E00AC0232B19F078
:102B500087E090E005C00230110534F088E090E095
:102B600090933302809332022D960FB6F894DEBF15
:102B70000FBECDBFDF91CF911F910F91FF90EF90CE
:102B8000DF90CF90BF90AF909F908F907F906F908D
:102B900008957F928F929F92AF92BF92CF92DF92D1
:102BA000EF92FF920F931F93CF93DF93CDB7DEB7D2
:102BB000C054D1090FB6F894DEBF0FBECDBF20E0E0
:102BC00044E35DE160E070E080E090E00E949920E5
:102BD000809138029091390281309D4734F080E035
:102BE0009DE790933902809338028091360290914C
:102BF0003702883E934034F087EE93E0909337029B
:102C000080933602209134023091350282E090E0C8
:102C1000821B930B9F938F93809137028F938091A8
:102C200036028F93809139028F93809138028F936F
:102C30008EE491E09F938F938E010F5F1F4F1F9340
:102C40000F930E94AC2810925306109252061092D5
:102C5000550610925406C8010E94E21CE09132020F
:102C6000F09133020FB6F894DEBF0FBECDBFF7FD73
:102C700044C0E930F10508F5EA5AFF4F0C949A2850
:102C800063E671E017C06FE671E014C06EE771E0B3
:102C900011C06AE871E00EC069E671E00BC065E939
:102CA00071E008C06EE971E005C06AEA71E002C037
:102CB00063EB71E0C8010E94A528F8010190002093
:102CC000E9F73197E01BF10B86E08E9F90018F9F13
:102CD000300D112480E890E0821B930B9695879528
:102CE000909353068093520688E090E090935506A7
:102CF00080935406C8010E94E21C83E2C82E82E041
:102D0000D82E9DE2A92E92E0B92E02E010E0F50146
:102D1000ED52F2404F01F50171905F017801272DCE
:102D200042EA5CE164E270E0C8010E9499207720E9
:102D3000A1F0F60121814CE95BE16BE270E0C80192
:102D400002960E949920F60120814AE45BE16BE241
:102D500070E0C8010C960E9499208091220290E0B8
:102D600088159905E9F04801F8E18F0E911CE814E7
:102D7000F904B1F040E06DE370E0C7010E94BD21AD
:102D800040E06EE370E0C7010E94BD2140E06FE3C8
:102D900070E0C7010E94BD212FEFE21AF20AE7CFCF
:102DA000075E1F4F82E0C80ED11C0F37110509F0D6
:102DB000AECFC05CDF4F0FB6F894DEBF0FBECDBF05
:102DC000DF91CF911F910F91FF90EF90DF90CF9007
:102DD000BF90AF909F908F907F900895AF92BF92D9
:102DE000CF92DF92EF92FF920F931F93CF93DF93D7
:102DF0001F92CDB7DEB7009120021091210260EC46
:102E0000600F16160CF460E0062E000C770B20E025
:102E100048E457E180E090E00E94992088E00E9419
:102E2000C41CF82E84E00E94C41CF82A80E80E948A
:102E3000C41CF82A80E10E94C41CF11002C088233F
:102E400031F085EC97E19093010180930001B090FF
:102E5000E801C80160E170E00E9486286C01AB2C9B
:102E600030E0E32EEC180E2C000CFF082A2D4AE46B
:102E70005BE1B70180E090E039830E9499202A2D20
:102E80004AE45BE1B70186E790E00E949920A394B1
:102E90008A2D8370A82E3981305F303511F78FE08D
:102EA000C816D10441F42B2D30E02F5F3F4F237023
:102EB00033272093E8010F5F1F4F109321020093E7
:102EC00020020F90DF91CF911F910F91FF90EF9013
:102ED000DF90CF90BF90AF900895CF930E94C91517
:102EE00080914A0690914B066EE170E00E94722834
:102EF000892B39F481E09091E701911180E0809372
:102F0000E7018091E701882349F020E046EB56E194
:102F100068E170E08EE190E00E94992088E00E94D4
:102F2000C41CC82F84E00E94C41CC82B80E80E94E7
:102F3000C41CC82B80E10E94C41CC11102C088239C
:102F400031F08AE49AE19093010180930001CF91DE
:102F50000895CF9388E00E94C41CC82F84E00E948B
:102F6000C41CC82B80E80E94C41CC82B80E10E94AE
:102F7000C41CC11102C0882331F08AE49AE1909305
:102F8000010180930001CF910895DF92EF92FF92AB
:102F90000F931F93CF93DF93CDB7DEB729970FB66B
:102FA000F894DEBF0FBECDBF0E94C91580E20E941B
:102FB000C41C882349F080912202882311F081509B
:102FC00001C084E08093220280E40E94C41C882314
:102FD00051F080912202843020F48F5F809322028E
:102FE00002C01092220288E00E94C41C882361F073
:102FF000E0912202F0E0E35DFD4F8081811103C08A
:1030000081E0808301C0108280E10E94C41C88237B
:1030100061F00E94CF1C10922102109220028EEECD
:1030200096E1909301018093000184E00E94C41C0A
:10303000882309F491C000913402109135020F5F8A
:103040001F4F109335020093340220911F02EDE2CE
:10305000F2E040E050E08DE0F82E93EFE92EDD2421
:10306000D3948081811114C0A22FB0E0A551BE4F2E
:103070003C91832F6F2D0E946628DA01AD5DBD4F14
:103080008C938E9D300D112411963C93D0822F5F2E
:1030900031964E5F5F4F4A30510519F720931F025A
:1030A0000E941A140230110509F056C01092EA016C
:1030B0001092E901809132029091330297FD1DC078
:1030C00029E0E6E1F1E0DE01119601900D922A95EA
:1030D000E1F7E1E0F0E0EC0FFD1FE80FF91F4081A0
:1030E0002091360230913702429FC001439F900DDC
:1030F00011249093EA018093E901409136025091A6
:1031000037028091E9019091EA01841B950B90931D
:10311000EA018093E9012091380230913902820F4F
:10312000931F9093390280933802109221021092DB
:103130002002181619061CF427E039E102C02DE61A
:1031400037E130930101209300018417950724F49F
:10315000909337028093360229960FB6F894DEBF1B
:103160000FBECDBFDF91CF911F910F91FF90EF90D8
:10317000DF9008950F931F93CF93DF93EBEEF1E071
:1031800080E081938F5F8433E1F70FE112E0C3E3C6
:10319000D0E00E94992BBE010E948628D8012E9172
:1031A0008D01FC01E551FE4F80818C932083219796
:1031B00081F7CDE2D2E0DE0120E030E00DE013EF58
:1031C00051E0EA2FEC1BF0E0E551FE4F4081842FE7
:1031D000602F0E946628F901ED5DFD4F8083819F7D
:1031E000400D112441835D932E5F3F4F2A303105FE
:1031F00041F785E080931F020E941A141092350255
:1032000010923402DF91CF911F910F9108950F9387
:103210001F93CF93DF93CDB7DEB7C054D1090FB65C
:10322000F894DEBF0FBECDBF0E94C91580912D025C
:10323000882309F44BC02091E9013091EA018E0105
:103240000F5F1F4F121613062CF43F932F9383EC3E
:1032500091E00AC021153105A1F031952195310980
:103260003F932F938EEC91E09F938F931F930F9337
:103270000E94AC280F900F900F900F900F900F901E
:1032800005C06BED71E0C8010E94A528F80101900E
:103290000020E9F73197E01BF10B86E08E9F90014B
:1032A0008F9F300D112480E890E0821B930B969540
:1032B0008795909353068093520680E190E0909317
:1032C000550680935406C8010E94E21C80914A066C
:1032D00090914B066EE170E00E947228892B39F4C0
:1032E00081E09091E701911180E08093E701609186
:1032F0002002709121026832710534F46F50710917
:1033000020E04BE751E005C020E04BE751E069E1E8
:1033100070E080E190E00E94992088E00E94C41C47
:10332000882341F00E94BA1885EC97E1909301013F
:103330008093000180E80E94C41C882319F18091C9
:10334000360290913702843691051CF08C599F4FBC
:1033500006C08A30910514F00A9601C00196909338
:103360003702809336028091380290913902209181
:103370003602309137028217930724F49093370274
:103380008093360280E10E94C41C8823B9F08091AA
:10339000360290913702883C91051CF084569109C1
:1033A00009C08431910514F00A9704C08230910558
:1033B0002CF001979093370280933602809120027F
:1033C0009091210201969093210280932002C05C8B
:1033D000DF4F0FB6F894DEBF0FBECDBFDF91CF91A8
:1033E0001F910F9108950F931F93CF93DF938091B7
:1033F00064008E7F8093640080917A008064809363
:103400007A0080917A0086FDFCCFC0917800D0913F
:1034100079000E94D7248E0120E030E09801112726
:103420000027600F711F821F931F611571058105B1
:10343000910511F00E94FC2B8091640081608093C3
:1034400064001092220284E690E090933902809307
:10345000380289E190E090933702809336020E940F
:10346000BA18109221021092200210922D0210928E
:103470002E0210922F02109230021092310287E039
:1034800099E19093010180930001DF91CF911F9109
:103490000F910895EF92FF920F931F93CF93DF93B5
:1034A0001F92CDB7DEB720E044EB52E160E070E060
:1034B00080E090E00E94992088E00E94C41C88234C
:1034C00049F083EF99E1909301018093000181E03D
:1034D0008093E60184E00E94C41C8823B9F08091A7
:1034E000C906882319F00E94B22102C00E94B721A8
:1034F0006091C90682E090E069830E94052C698191
:10350000681721F082E090E00E940D2C80E10E947B
:10351000C41C882331F089EA97E1909301018093DC
:1035200000018091C906811115C000E710E0E12C6F
:10353000F12C40E0B701C8010E94BD218FEFE81ACD
:10354000F80A80E1E816F104A1F70F5F1F4F003879
:10355000110569F78091C50681110FC085E492E0DD
:103560009093BF068093BE069093C1068093C006D9
:103570000E94E52381E08093C5060F90DF91CF91F3
:103580001F910F91FF90EF900895CF93DF9390914B
:10359000BD06923009F491C0292F30E0F901E45BB7
:1035A000FE4F7081F901E65CFD4F8083913031F46C
:1035B00020913A02281302C09093BC069F5F90931B
:1035C000BD0690E0AC014C5B5E4DFA0164918F58F2
:1035D0009E4DFC012491222399F030E0220F331FED
:1035E000F901EA5CFE4DA591B4912D593E4DF901CA
:1035F000C591D4912FB7F8943C91632B6C932FBF56
:10360000713019F0733039F158C020916400277F70
:10361000209364001092800010928100209181001C
:1036200028602093810020918100216020938100F7
:10363000FC018491E82FF0E0EE0FFF1FED59FE4DE5
:10364000859194919093C3068093C206FA014491A8
:103650004093C40632C020916500277F2093650007
:103660001092900010929100209191002860209378
:10367000910020919100216020939100FC018491A0
:1036800090E0880F991F8D599E4DFC012591349132
:103690003093C7062093C606FA0144914093C806AA
:1036A0008091BD06882321F06CE380E00E94C22255
:1036B00080E0DF91CF910C94B423DF91CF910895F6
:1036C000FC0180913F02811103C08FEF9FEF0895AD
:1036D0009FB7F89482E08093E9002091F20030E0F7
:1036E0001216130614F421E030E02115310559F0CB
:1036F000289884E680936B068091F1008083809106
:10370000F200882319F09FBFC90108958BE68093CA
:10371000E800F9CF2FB7F89483E08093E900909107
:10372000E800892F807295FF04C09091F20080E438
:10373000891B2FBF08958091630681110DC082E01F
:1037400080935F0684E08093600610926206109278
:10375000610681E0809363068FE596E00895CF933C
:10376000DF931F92CDB7DEB76983DC01ED91FC9149
:103770000280F381E02D41E050E0BE016F5F7F4F9A
:1037800009950F90DF91CF91089583E08093E90030
:103790008091F200882319F08AE38093E80008956D
:1037A0000E948A1B90E00895CF93DF931F92CDB7BC
:1037B000DEB7FC018485958597FD05C02FEF3FEFAF
:1037C000358724870BC0CE0101960E94601B0197AC
:1037D00019F4898190E002C08FEF9FEF0F90DF9185
:1037E000CF9108950F931F93CF93DF931F92CDB77F
:1037F000DEB78C01FC018485958597FF0EC0CE0154
:1038000001960E94601B019719F4298130E002C0E3
:103810002FEF3FEFF80135872487F80184859585E0
:103820000F90DF91CF911F910F910895FC01848536
:10383000958597FD0BC09FB7F89482E08093E900CF
:103840008091F2009FBF90E0019608959FB7F89491
:1038500082E08093E9008091F2009FBF90E008959C
:1038600040915C0650915D0620915A0630915B06AE
:1038700042175307B4F49091E8009570E1F39091EA
:10388000E80092FD19C08093F10080915C06909150
:103890005D0601968F739927892B19F48EEF80931B
:1038A000E80080915C0690915D06019690935D061C
:1038B00080935C0681E0089580E00895DF92EF92A6
:1038C000FF920F931F93CF93DF93D82E8A017B0132
:1038D000E40EF51EEB01CE15DF0571F0D7FE03C037
:1038E000FE01849101C088810E94301C21968111C3
:1038F000F2CF8FEF9FEF01C0C801DF91CF911F91F1
:103900000F91FF90EF90DF9008950F931F93CF9347
:10391000DF931F92CDB7DEB782E0898342E450E0A7
:1039200060E971E280E80E945E1C0E949B1BDC0142
:1039300012960D911C9113970115110569F0D8018C
:10394000ED91FC910280F381E02DBE016F5F7F4F0E
:10395000C801099597FF07C089810F90DF91CF912A
:103960001F910F910895F80100851185E5CF6150F1
:1039700030F02091F100FC0120830196F8CF2898C7
:1039800084E680936B06089520914D06282329F440
:1039900090914C06982381E009F480E0089580E03E
:1039A000E0E4F2E081118FEF002481938193819311
:1039B00081930394D1F7E3E4F6E0128A118A108A26
:1039C00017860895009769F0FC0101900020E9F73F
:1039D0003197AF01481B590BBC0183E496E00C946E
:1039E000642080E090E00895E0E4F2E0A0E0B8E038
:1039F00000800EBC8111012C1197A0FDFDCF01921A
:103A0000B9F70DB408951F920F920FB60F921124BB
:103A10008F939F938091E1009091E100937F909329
:103A2000E10083FF0FC01092E90091E09093EB005A
:103A30001092EC0092E39093ED0010923F0298E018
:103A40009093F00082FF20C093E09093E900909162
:103A5000F200992319F09AE39093E80090915E06A2
:103A6000992339F090915E06915090935E069923C8
:103A700089F190916B06992339F090916B069150E2
:103A800090936B06992341F184FF10C08091E2006E
:103A90008E7E81608093E2008091E1008F7E809332
:103AA000E10080913E028E7E806111C080FF16C0D1
:103AB0008091E2008E7E80618093E2008091E1003F
:103AC0008E7E8093E10080913E028E7E81608093A5
:103AD0003E0204C05D9ACDCF289AD6CF9F918F9198
:103AE0000F900FBE0F901F9018951F920F920FB658
:103AF0000F921124CF92DF92EF92FF920F931F93B8
:103B00002F933F934F935F936F937F938F939F93E5
:103B1000AF93BF93EF93FF93CF93DF93CDB7DEB710
:103B20006C97DEBFCDBF1092E9008091E80083FF63
:103B3000EDC168E0CE0145960E94B71C82EF8093EC
:103B4000E8008D8987FF05C09091E80090FFFCCFC9
:103B500003C09EEF9093E800982F907609F0C6C0BE
:103B60009E892F89188D91110CC0803829F480917D
:103B70003D028093F10002C01092F1001092F1001A
:103B800048C1422F50E0512B913051F4811141C175
:103B90004130510509F03DC180913D028D7F0BC040
:103BA000933061F4811135C14130510509F031C1C3
:103BB00080913D02826080933D022BC1953041F49B
:103BC0008091E80080FFFCCF20682093E30021C1B2
:103BD000963009F05FC0EB8CFC8C1092E9001092DB
:103BE0005D0610925C06123091F510925B06109201
:103BF0005A060E94851C99E0BE016F5F7F4FDB0172
:103C0000E92F1D92EA95E9F799831A8391E09E8343
:103C100090EA98879AEF998720915C0630915D062B
:103C2000275F3F4F3C832B838D831092E9001092D6
:103C30005D0610925C06F0925B06E0925A0649E03F
:103C400050E080E00E945E1C0E94851CE2C0F09261
:103C50005B06E0925A060E949B1BDC011296ED90D7
:103C6000FC901397E114F10409F4C0C0D701ED9161
:103C7000FC910480F581E02DBE016B5E7F4FC70192
:103C80000995009719F00CF0C4C0C7C0F701E08493
:103C9000F184E8CF973009F4C0C0983021F481E076
:103CA0008093F100B6C0993009F0B3C0837009F079
:103CB000B4C0E0E2F1E081E021E036E390819923B5
:103CC00061F08093E9002093EB0091919093EC00D8
:103CD0003093ED008F5F873089F78EE78093EA009D
:103CE0001092EA008F8980933F0293C08B8D9C8D48
:103CF0001092E90010925D0610925C0690935B06AC
:103D000080935A06898D811156C08E899D89913A7A
:103D100059F4813209F081C047E050E066E071E07B
:103D200080E00E945E1C75C0913209F076C083323B
:103D300089F4888D90E0982F88272F89822BA0E026
:103D4000B0E08093020190930301A0930401B0932B
:103D500005015FC0803269F48091E80082FFFCCFEA
:103D600067E086E091E00E94B71C8BEF8093E8004B
:103D700006C0823209F04DC08F8980930D01809179
:103D80003C02882319F0EEEFFAE002C0E0E0F8E030
:103D90008091060190910701A0910801B09109015D
:103DA000803B9440A105B10509F07BC080910D01D5
:103DB00080FF93C076C00E949B1BDC0112960D9180
:103DC0001C9113970115110541F1D801ED91FC915A
:103DD0000190F081E02DBE016B5E7F4FC801099517
:103DE000811117C0F80100851185ECCF113009F45D
:103DF0004EC0133091F48F89882309F445C0823076
:103E000081F440E860E184EF91E20E94AD278823CD
:103E100021F08EEF8093E80079C081E28093EB007F
:103E200075C0813029F440E86BE088EE91E2EDCF77
:103E3000833099F70E949B1BDC011296ED90FC9059
:103E400013978E010F5F1F4F6801E114F10479F0A1
:103E5000D701ED91FC910680F781E02DB801C701F3
:103E60000995080F111DF701E084F184EECFD80108
:103E70001C92F60101900020E9F73197BF016C19FF
:103E80007D0940E0C601C1CF62ED71E202C066ED7E
:103E900071E26115710509F2FB01449150E080E87F
:103EA00040CF0FB6F894A895809160008861809308
:103EB0006000109260000FBEA895EE3F2AE0F20766
:103EC00039F08091FE0A9091FF0A91838083A1CFFF
:103ED0001092FF0A1092FE0A9CCFEE3F8AE0F8078C
:103EE00031F0808191819093FF0A8093FE0A87E7E9
:103EF00097E7918380839BE088E10FB6F894A895BB
:103F0000809360000FBE9093600083CF6C960FB6D5
:103F1000F894DEBF0FBECDBFDF91CF91FF91EF913F
:103F2000BF91AF919F918F917F916F915F914F91D1
:103F30003F912F911F910F91FF90EF90DF90CF90C5
:103F40000F900FBE0F901F9018958F929F92AF9277
:103F5000BF92CF92DF92EF92FF926B017C010E94A1
:103F6000D7244B015C01C114D104E104F104F1F048
:103F70000E94D724DC01CB0188199909AA09BB0941
:103F8000883E9340A105B10570F321E0C21AD10823
:103F9000E108F10888EE880E83E0981EA11CB11C90
:103FA000C114D104E104F10419F7DDCFFF90EF90C3
:103FB000DF90CF90BF90AF909F908F9008958F9299
:103FC0009F92AF92BF92CF92DF92EF92FF920F93A8
:103FD0001F93CF93DF935C016B017A0180910D01F8
:103FE000882309F45BC080913F02882309F456C0FE
:103FF00080913E0280FF05C08091E0008260809346
:10400000E000E70110E00AEF83E0882E9AE3992EA2
:104010002097D9F10E948A1B81110AC0015009F42E
:104020003DC061E070E080E090E00E94A51FF0CF0D
:10403000282F30E0C217D3070CF48C2F4FB7F89419
:104040008092E9009091E80095FF1DC0282F30E094
:10405000C21BD30BF601982F915020F081918093D1
:10406000F100FACFC20ED31E112319F09092E8008E
:1040700009C08091E80085FD06C09092E80011E03B
:10408000209709F010E04FBFC3CF1111C3CF5D9847
:1040900084E680935E061E141F0444F081E090E0E5
:1040A000F5019383828380E090E001C0C701DF9136
:1040B000CF911F910F91FF90EF90DF90CF90BF9025
:1040C000AF909F908F900895CF92DF92EF92FF92E2
:1040D0000F931F93CF93DF936C017A018B01C0E0A4
:1040E000D0E0CE15DF0589F0D8016D918D01D601A4
:1040F000ED91FC910190F081E02DC6010995892B8D
:1041000011F47E0102C02196ECCFC701DF91CF915F
:104110001F910F91FF90EF90DF90CF9008958091C5
:10412000C90608950895089580E090E008950E94DA
:10413000A0284F925F927F928F929F92AF92BF92F0
:10414000CF92DF92EF92FF920F931F93CF93DF9363
:1041500000D000D0CDB7DEB7DC014115510509F420
:10416000DEC0FA01D490319694914E5F5F4F4D2C92
:10417000512C2223E9F0E92FE695E695E695EE2EFF
:10418000F12CE1E0F0E0892F877011F4E0E0F0E03D
:10419000EE0DFF1D4E9E70014F9EF00C5E9EF00CCA
:1041A00011242E9DF0012F9DF00D11244E0F5F1F45
:1041B0005D01A40CB51C1A141B040CF0B0C0A0388F
:1041C000B1050CF0ACC09B01290F311D121613066E
:1041D0000CF0A5C0603471050CF0A1C0411551056B
:1041E00009F49DC0F62FF770EF2E9B0177FF02C0F8
:1041F000295F3F4F83E0359527958A95E1F7F22FA8
:1042000077FF04C0EE2011F0FFEFF20FB7FF05C0FB
:10421000662777276A1B7B0B02C060E070E000E82E
:10422000A016B10424F080E8F82EFA1A01C0FD2C83
:10423000F61A2F2F0F2E000C330BFF3F1CF4C22E4B
:10424000C09401C0C12CE1E0892F877009F4E0E03F
:104250009695969596959E0F290F311D293031051B
:1042600014F098E09F1B8C2D8F0F9D01182F00E8F4
:104270001003200D311D1124260F371FCD9C600D1A
:10428000711D1124640F751F41E050E00E2C02C017
:10429000440F551F0A94E2F7EFEFE49FD001E59F2A
:1042A000B00D1124A095B095BC83AB837C809F0F8B
:1042B0008917A9F1F901E05CFD4F6F01A12CB12C28
:1042C000AF1438F5FB01EA0DFB1DE491E49F4001BA
:1042D000E59F900C11249A82898287FD07C0F60120
:1042E0001081E12FEA238E2AF6018082EE2051F020
:1042F000873044F4F601E058FF4F908097208A8081
:1043000098289082FFEFAF1ABF0A0FEFC01AD00AA9
:10431000D7CF8F5F640D751D20583F4FC9CF0F90C9
:104320000F900F900F90DF91CF911F910F91FF9001
:10433000EF90DF90CF90BF90AF909F908F907F9045
:104340005F904F9008952D9A0895BC0180E090E011
:104350000C94A51F8FB18095807F669B88601C9B05
:10436000846008951092C9063E983F9808953E9A39
:104370003F9A81E08093C9060895E5EDF7E290E168
:10438000969FD001A0781124A80F6770E60FF11D49
:104390009491A05CBD4F442319F08C91982B03C0DD
:1043A00090958C9198239C9308952F923F924F92D1
:1043B0005F926F927F928F929F92AF92BF92CF92B5
:1043C000DF92EF92FF920F931F93CF93DF93CDB7BE
:1043D000DEB727970FB6F894DEBF0FBECDBFFC0146
:1043E0006A3069F425898189928938E0239F800D9C
:1043F000911D1124928B818B108A1786A6C06D3077
:1044000009F4A3C09F838E83358824892983338947
:104410003A8361887288E784F08880E8E816F104BE
:10442000C4F0AE81BF8155962C915597422F50E034
:104430001F968D919C915097B6E02B9F800D911DFA
:104440001124EE81FF81908B87872689211167C017
:104450007CC0F0E46F16710424F7C70125E0329E9A
:10446000800D911D112418161906DCF6432C512CD1
:10447000C30138E0339E800D911D112418161906D2
:1044800084F685E0689F800111240B521D4D20E0C9
:10449000F8012490253009F4212C430158E020FC38
:1044A00002C0398101C03A8131110BC0F9818A8182
:1044B000F81307C026945150840C951C5111EFCF6E
:1044C00025C067018C2D8E198315A0F754018A2D04
:1044D00088198315B8F490E8C916D10478F4A0E4DB
:1044E000AA16B10458F4432FB501C6012C833B83AF
:1044F0005D830E94BD215D813B812C81BFEFAB1AA2
:10450000BB0AE5CFEFEFCE1ADE0ADCCF2F5FE40C5B
:10451000F51C0F5F1F4F263009F0BACF82CF6AEF2C
:1045200064039001659F300D112420583F4F2817D8
:1045300039075CF4AE81BF81ED91FC911197019038
:10454000F081E02D6AE0CD01099581E090E02796A9
:104550000FB6F894DEBF0FBECDBFDF91CF911F9194
:104560000F91FF90EF90DF90CF90BF90AF909F9012
:104570008F907F906F905F904F903F902F90089515
:104580000C94052CCF92DF92EF92FF921F93CF9362
:10459000DF93E82FF0E0E45BFE4F1081E62FF0E0C0
:1045A000603330F4EB55FD4DE491CE2FD0E006C0E2
:1045B000EE0FFF1FEB55FE4DC591D4916E01E12C1E
:1045C000F12C60E074E284EF90E0A70196010E9474
:1045D0001B2CDA01C9010197A109B109009721E05B
:1045E000A207B10578F060E970ED83E090E0A701E3
:1045F00096010E941B2CDA01C9010197A109B1099A
:1046000023E001C021E01130C9F0133051F53091A1
:104610009100387F232B20939100909399008093F1
:104620009800D093D606C093D50681E08093D40637
:104630008091710082608093710013C03091D70621
:1046400031110FC030918100387F232B20938100DE
:10465000909389008093880080916F00826080939E
:104660006F00DF91CF911F91FF90EF90DF90CF907F
:1046700008951F920F920FB60F9211242F933F931C
:104680008F939F93AF93BF93EF93FF938091D70640
:10469000882309F44FC08091CA069091CB06A0915F
:1046A000CC06B091CD06892B8A2B8B2B51F18091B2
:1046B000C406E091C206F091C306908189278083E9
:1046C0008091CA069091CB06A091CC06B091CD0600
:1046D000181619061A061B06D4F58091CA06909181
:1046E000CB06A091CC06B091CD060197A109B109E6
:1046F0008093CA069093CB06A093CC06B093CD06C8
:1047000026C01092D3061092D70680916F008D7F3D
:1047100080936F009091C406E091C206F091C306A9
:104720008081282F30E0892F90E08095909582231A
:1047300093230CC08091D206811109C08091C406D8
:10474000E091C206F091C306908189278083FF9192
:10475000EF91BF91AF919F918F913F912F910F90CA
:104760000FBE0F901F901895E82FF0E0E45BFE4F0E
:104770008081813019F0833089F008958091D706C7
:10478000811122C080916F008D7F80936F00909186
:10479000C406E091C206F091C3060CC01092D40684
:1047A0008091D306811110C09091C806E091C60691
:1047B000F091C7068081282F30E0892F90E0809506
:1047C00090958223932380830895CF93DF93D1E044
:1047D000E091C006F091C1069F012F5F3F4F3093DB
:1047E000C1062093C0068491982F907FC82FCF7068
:1047F000903821F48C2F0E94B423EACF9039F9F439
:10480000E0914006F091410609958D278093D206EC
:10481000E091C006F091C106CF0101969093C106C8
:104820008093C00664918091BD06C81788F6C13098
:1048300009F052C08091BC068111CACF4DC097FDCE
:104840003AC03296F093C106E093C006F901249174
:1048500030E0382BA091D506B091D6060E946F2C7F
:104860006C507E4F8F4F9F4F28EE33E040E050E07A
:104870000E944D2C2093CE063093CF064093D00655
:104880005093D1068091CE069091CF06A091D0068C
:10489000B091D106892B8A2B8B2B21F581E090E0FA
:1048A000A0E0B0E08093CE069093CF06A093D00610
:1048B000B093D10617C0903E49F48091BE06909106
:1048C000BF069093C1068093C00682CF903F09F047
:1048D0007FCF1092C50606C067FD7ACF8C2F0E944D
:1048E000C22276CFDF91CF9108951F920F920FB61B
:1048F0000F9211242F933F934F935F936F937F9366
:104900008F939F93AF93BF93EF93FF938091D406C0
:10491000882341F08091D306811104C08091D20692
:10492000882351F18091C506882381F18091CE06BC
:104930009091CF06A091D006B091D106892B8A2BF9
:104940008B2B21F18091CE069091CF06A091D006BD
:10495000B091D1060197A109B1098093CE06909339
:10496000CF06A093D006B093D106892B8A2B8B2B30
:1049700069F40E94E5230AC08091C806E091C6064A
:10498000F091C706908189278083CCCFFF91EF916A
:10499000BF91AF919F918F917F916F915F914F9157
:1049A0003F912F910F900FBE0F901F9018953FB71A
:1049B000F8948091DD069091DE06A091DF06B0911B
:1049C000E00626B5A89B05C02F3F19F00196A11D52
:1049D000B11D3FBFBA2FA92F982F8827820F911D95
:1049E000A11DB11DBC01CD0142E0660F771F881FDC
:1049F000991F4A95D1F708951F920F920FB60F9203
:104A000011242F933F938F939F93AF93BF938091E4
:104A1000D8069091D906A091DA06B091DB063091C4
:104A2000DC0623E0230F2D3720F40196A11DB11DD4
:104A300005C026E8230F0296A11DB11D2093DC06B8
:104A40008093D8069093D906A093DA06B093DB063C
:104A50008091DD069091DE06A091DF06B091E00620
:104A60000196A11DB11D8093DD069093DE06A093F3
:104A7000DF06B093E006BF91AF919F918F913F9178
:104A80002F910F900FBE0F901F901895789484B5BA
:104A9000826084BD84B5816084BD85B5826085BD3A
:104AA00085B5816085BD80916E00816080936E00C8
:104AB00010928100809181008260809381008091BA
:104AC000810081608093810080918000816080936B
:104AD000800080919100826080939100809191008C
:104AE000816080939100809190008160809390001C
:104AF0008091C10084608093C1008091C100826078
:104B00008093C1008091C10081608093C100809139
:104B1000C30081608093C3008091C0008260809355
:104B2000C0008091C20081608093C20080917A00B1
:104B3000846080937A0080917A00826080937A000A
:104B400080917A00816080937A0080917A008068F9
:104B500080937A0010923F0210923D0210923E0222
:104B60008091D70081608093D70080EA8093D8003D
:104B700089B5806189BD89B5826089BD09B400FEAF
:104B8000FDCF61E070E080E090E00E94A51F809181
:104B9000D8008F7C80618093D8008091E000807F76
:104BA0008093E0008091E1008E7E8093E1008DE0B3
:104BB0008093E200559A209AEEEFFFE78591949159
:104BC0008B3F9C4D19F481E080933C0281EC8093F3
:104BD0007C0085B1806F85B984B1877E84B984B14A
:104BE000876E84B95E9A5F988AB1806D8AB9769A29
:104BF0006E9881B3806F81BB899880B38D7080BBC4
:104C000080E58CBD81E08DBD85E090E00E94A5210E
:104C10005F9A85E090E00E94A5215E985C98EEE6A0
:104C2000F1E08DE08E0F94919EBD00000DB407FE63
:104C3000FDCF31968E13F7CF5C9A81E880936400A4
:104C40008091650081608093650080E00E94F41C83
:104C50000E94AA2187FF24C05C9885EA8EBD0000CF
:104C60000DB407FEFDCF5C9A2E982F982D98809159
:104C7000640080628093640081E083BF889513BEE6
:104C8000FCCF2D980E94AA218478843871F00E946C
:104C9000AA218471843131F188EC90E00E94A52131
:104CA0000E94AA2182FDEDCF3AC00E94A32188EC88
:104CB00090E00E94A5212F9882E090E00E94052CB0
:104CC0008F3F29F06FEF82E090E00E940D2C84EF7F
:104CD00091E00E94A5212F9A0E94AA21847884380D
:104CE000D9F3D5CF0E94A32188EC90E00E94A521A2
:104CF0002E9882E090E00E94052C882329F060E045
:104D000082E090E00E940D2C84EF91E00E94A521AA
:104D10002E9A0E94AA2184718431D9F3BDCF0E94BA
:104D2000A32182E090E00E94052C882319F00E94C4
:104D3000B72102C00E94B22181E090E00E94C0220F
:104D400082FB992490F881FF8CC091102E98C0EFBF
:104D5000DFEF08E010E00E94AA2186FF04C02E9A2F
:104D60002F9A2D9A7EC0992029F0C430D10511F4D4
:104D70002E9A2F9881E00E94F41C9E01D7FF04C058
:104D8000222733272C1B3D0B27703327CE01D7FD5D
:104D9000079653E0959587955A95E1F7D7FF05C09B
:104DA0000197A801421B530B9A017C01F694FE2C3B
:104DB000EE24F794E79460E070E03801621A730A19
:104DC000F701E058FF4F5F018F3FFFEF9F0744F46B
:104DD0000196685A7F4F7501603B710589F721C0C4
:104DE000D701AC52BD4F40E050E08F3FEFEF9E0740
:104DF00009F498C0FA01E60FF71FE254FF4FE4915F
:104E00006D01CA18DB08CE0CDF1CF0E02F01022E6A
:104E100001C0440C0A94EAF7F601808048284082D9
:104E200081C080E00E94F41C8FE090E00E94A521E8
:104E30002196C931D10509F08ECF992011F02F9A12
:104E40002D9880E991E00E94A5210E94A321E09184
:104E50004706F09148060190F081E02D87E496E046
:104E6000099582E390E00E94A5210E94AA21811168
:104E7000F8CF81E280934E0681E0809358060E942D
:104E8000CF1C85E00E94C51A8DE00E94C51A11E072
:104E9000C0E0D0E001E08FB7F8944091D80650917F
:104EA000D9066091DA067091DB068FBF80914F06BC
:104EB000F42FF81B8F2F90915006992329F0F0932F
:104EC00051061092500628C090914E06F91738F4FA
:104ED0008F5F891708F513BF889513BE1DC0009317
:104EE000500640934F0680914A0690914B060196DA
:104EF00090934B0680934A0680914C0680934D0612
:104F00000E94AA2180934C06E0910001F0910101DA
:104F1000099580E00E94F41C209709F4BCCF0E9400
:104F20000000B9CF2115310581F0FA01E60FF71F16
:104F3000E254FF4FE491F0E0062C02C0F595E795AE
:104F40000A94E2F7DC90ED29EC934F5F5F4F1196E6
:104F50004835510509F049CF3BCFCF92DF92EF9210
:104F6000FF920F931F93CF93DF931F92CDB7DEB7BE
:104F7000182F062FE42E862F880F8E5F99830E94AC
:104F8000301C83E00E94301CF12EC12E9981D92E55
:104F90008C2D8F19801798F4F601E7FE02C08491DA
:104FA00001C080810E94301C182F80E00E94301CBC
:104FB0008123FFEFCF1ADF0A8111EACF01C081E020
:104FC0000F90DF91CF911F910F91FF90EF90DF90A5
:104FD000CF900895ECE6F6E01382128288EE93E01B
:104FE000A0E0B0E084839583A683B7838AE291E052
:104FF000918380838FEF9FEF95878487E3E4F6E0CA
:10500000138212821186128680E1838710861782AE
:1050100015868CE391E0918380838AE491E0958307
:105020008483108A1786128A118A81E0838B148AFE
:10503000858B168A8FE890E2909341068093400614
:1050400008950F931F93CF93DF938C0181E090E03D
:105050000E94C02280FF32C08AE090E00E94C022FD
:105060009FEF980F9E3F50F522E330E0D801509615
:105070003C932E931F9728E330E052963C932E9357
:105080005197CBE0D0E0D801ED91FC910190F081F7
:10509000E02D682FC8010995CE010E94C0222196FB
:1050A000C131D10581F780E00E94F41C88EE93E0C5
:1050B000DF91CF911F910F910C94A521DF91CF919A
:1050C0001F910F91089504970C942128991B79E062
:1050D00004C0991F961708F0961B881F7A95C9F788
:1050E00080950895AA1BBB1B51E107C0AA1FBB1FD7
:1050F000A617B70710F0A61BB70B881F991F5A9564
:10510000A9F780959095BC01CD01089597FB072ED6
:1051100016F4009407D077FD09D00E94722807FC8E
:1051200005D03EF4909581959F4F089570956195B7
:105130007F4F0895EE0FFF1F0590F491E02D099425
:1051400081E090E0F8940C94B52CFB01DC01019017
:105150000D920020E1F70895AEE0B0E0E2EBF8E256
:105160000C948C2C0D891E8986E08C831A8309830C
:105170008FEF9FE79E838D83AE01475E5F4F6F8900
:10518000788DCE0101960E94CF282F813885F801B5
:10519000E20FF31F10822E96E4E00C94A82CACE0F2
:1051A000B0E0E5EDF8E20C947E2C7C016B018A0105
:1051B000FC0117821682838181FFBDC1CE01019659
:1051C0004C01F7019381F60193FD859193FF819145
:1051D0006F01882309F4ABC1853239F493FD8591C1
:1051E00093FF81916F01853229F4B70190E00E940D
:1051F000B72AE7CF512C312C20E02032A0F48B329B
:1052000069F030F4803259F0833269F420612CC0A7
:105210008D3239F0803339F4216026C02260246059
:1052200023C0286021C027FD27C030ED380F3A3059
:1052300078F426FF06C0FAE05F9E300D1124532E4D
:1052400013C08AE0389E300D1124332E20620CC02A
:105250008E3221F426FD6BC1206406C08C3611F419
:10526000206802C0883641F4F60193FD859193FFD2
:1052700081916F018111C1CF982F9F7D95549330FB
:1052800028F40C5F1F4FFFE3F9830DC0833631F024
:10529000833771F0833509F05BC022C0F80180814B
:1052A00089830E5F1F4F44244394512C540115C031
:1052B0003801F2E06F0E711CF801A080B18026FF6A
:1052C00003C0652D70E002C06FEF7FEFC5012C8732
:1052D0000E94AC2A2C0183012C852F77222E17C027
:1052E0003801F2E06F0E711CF801A080B18026FF3A
:1052F00003C0652D70E002C06FEF7FEFC5012C8702
:105300000E94A12A2C012C852068222E830123FCD7
:105310001BC0832D90E048165906B0F4B70180E217
:1053200090E00E94B72A3A94F4CFF50127FC8591CA
:1053300027FE81915F01B70190E00E94B72A3110EA
:105340003A94F1E04F1A51084114510471F7E5C045
:10535000843611F0893639F5F80127FF07C06081DE
:105360007181828193810C5F1F4F08C060817181C0
:10537000072E000C880B990B0E5F1F4F2F76722E95
:1053800097FF09C090958095709561957F4F8F4FDD
:105390009F4F2068722E2AE030E0A4010E94EF2A7D
:1053A000A82EA81844C0853729F42F7EB22E2AE0F3
:1053B00030E025C0F22FF97FBF2E8F36C1F018F4F0
:1053C000883579F0B4C0803719F0883721F0AFC044
:1053D0002F2F2061B22EB4FE0DC08B2D8460B82E0D
:1053E00009C024FF0AC09F2F9660B92E06C028E08E
:1053F00030E005C020E130E002C020E132E0F801F9
:10540000B7FE07C060817181828193810C5F1F4F5D
:1054100006C06081718180E090E00E5F1F4FA401A3
:105420000E94EF2AA82EA818FB2DFF777F2E76FE6C
:105430000BC0372D3E7FA51450F474FE0AC072FCD9
:1054400008C0372D3E7E05C0BA2C372D03C0BA2CBC
:1054500001C0B52C34FF0DC0FE01EA0DF11D8081A5
:10546000803311F4397E09C032FF06C0B394B3947F
:1054700004C0832F867809F0B39433FD13C030FF46
:1054800006C05A2CB31418F4530C5B18B32CB31485
:1054900068F4B70180E290E03C870E94B72AB39499
:1054A0003C85F5CFB31410F43B1801C0312C34FF08
:1054B00012C0B70180E390E03C870E94B72A3C8588
:1054C00032FF17C031FD03C088E790E002C088E5D5
:1054D00090E0B7010CC0832F867859F031FF02C0ED
:1054E0008BE201C080E237FD8DE2B70190E00E94BF
:1054F000B72AA51438F4B70180E390E00E94B72AD8
:105500005A94F7CFAA94F401EA0DF11D8081B701F6
:1055100090E00E94B72AA110F5CF332009F451CEB4
:10552000B70180E290E00E94B72A3A94F6CFF701E3
:105530008681978102C08FEF9FEF2C96E2E10C9459
:105540009A2CFC010590615070400110D8F78095AD
:1055500090958E0F9F1F0895FC016150704001903F
:105560000110D8F7809590958E0F9F1F08950F9387
:105570001F93CF93DF93FB01238121FD03C08FEFA6
:105580009FEF28C022FF16C04681578124813581B4
:105590004217530744F4A081B1819D012F5F3F4F13
:1055A000318320838C93268137812F5F3F4F378350
:1055B000268310C0EB01092F182F0084F185E02D00
:1055C0000995892BE1F68E819F8101969F838E83B9
:1055D000812F902FDF91CF911F910F910895FA01A4
:1055E000AA27283051F1203181F1E8946F936E7F22
:1055F0006E5F7F4F8F4F9F4FAF4FB1E03ED0B4E013
:105600003CD0670F781F891F9A1FA11D680F791F53
:105610008A1F911DA11D6A0F711D811D911DA11D64
:1056200020D009F468943F912AE0269F1124301974
:10563000305D3193DEF6CF010895462F4770405D0F
:105640004193B3E00FD0C9F7F6CF462F4F70405DBE
:105650004A3318F0495D31FD4052419302D0A9F719
:10566000EACFB4E0A6959795879577956795BA9513
:10567000C9F700976105710508959B01AC010A2ED9
:1056800006945795479537952795BA95C9F7620FB0
:10569000731F841F951FA01D08958F929F92AF9234
:1056A000BF92CF92DF92EF92FF92CF93DF93EC0104
:1056B000688179818A819B816115710581059105D8
:1056C00021F464E279ED8BE597E02DE133EF41E0E1
:1056D00050E00E941B2C49015A019B01AC01A7EA32
:1056E000B1E40E943A2C6B017C01ACEEB4EFA50151
:1056F00094010E94482CDC01CB018C0D9D1DAE1D38
:10570000BF1DB7FF03C00197A109B04888839983E3
:10571000AA83BB839F77DF91CF91FF90EF90DF90BB
:10572000CF90BF90AF909F908F9008950E944D2B87
:1057300008958EE091E00E944D2B0895A0E0B0E026
:1057400080930E0190930F01A0931001B09311016B
:1057500008958F929F92AF92BF92CF92DF92EF9275
:10576000FF92CF93DF93EC01688179818A819B81DD
:10577000611571058105910521F464E279ED8BE5F0
:1057800097E02DE133EF41E050E00E941B2C4901EE
:105790005A019B01AC01A7EAB1E40E943A2C6B01CB
:1057A0007C01ACEEB4EFA50194010E94482CDC0111
:1057B000CB018C0D9D1DAE1DBF1DB7FF03C0019712
:1057C000A109B04888839983AA83BB83BC01CD011A
:1057D0009F77DF91CF91FF90EF90DF90CF90BF90B8
:1057E000AF909F908F9008950E94A92B089582E119
:1057F00091E00E94A92B0895609312017093130108
:1058000080931401909315010895F999FECF92BDEC
:1058100081BDF89A992780B50895262FF999FECF72
:105820001FBA92BD81BD20BD0FB6F894FA9AF99ABD
:105830000FBE01960895052E97FB1EF400940E945A
:10584000322C57FD07D00E944D2C07FC03D04EF49C
:105850000C94322C50954095309521953F4F4F4FE9
:105860005F4F089590958095709561957F4F8F4F0C
:105870009F4F08950E946F2CA59F900DB49F900D8F
:10588000A49F800D911D11240895B7FF0C943A2C0C
:105890000E943A2C821B930B0895A1E21A2EAA1B98
:1058A000BB1BFD010DC0AA1FBB1FEE1FFF1FA217D0
:1058B000B307E407F50720F0A21BB30BE40BF50BCD
:1058C000661F771F881F991F1A9469F76095709556
:1058D000809590959B01AC01BD01CF010895A29FD9
:1058E000B001B39FC001A39F700D811D1124911DB4
:1058F000B29F700D811D1124911D08952F923F922A
:105900004F925F926F927F928F929F92AF92BF92CF
:10591000CF92DF92EF92FF920F931F93CF93DF937B
:10592000CDB7DEB7CA1BDB0B0FB6F894DEBF0FBED8
:10593000CDBF09942A88398848885F846E847D8425
:105940008C849B84AA84B984C884DF80EE80FD8027
:105950000C811B81AA81B981CE0FD11D0FB6F8949D
:0E596000DEBF0FBECDBFED010895F894FFCF5E
:10596E004A1AFFFFFFFF00E10000000000000100E7
:10597E00000001000000FA321909060403020100BA
:10598E00C1808100000000000000AF1BDF1FD01B94
:10599E00C51B161CD41BF21B00000000D521642071
:1059AE00942093202128FCFF0000632803015363F9
:1059BE006F72653A253564204265743A253364204A
:1059CE00256400526F79616C20466C7573680053C4
:1059DE007472616967687420466C75736800342050
:1059EE006F662061206B696E640046756C6C206872
:1059FE006F75736500537472616967687400332044
:105A0E006F662061206B696E640054776F20706141
:105A1E006972004A61636B73206F722062657474E1
:105A2E00657200596F752077696E20256400596F75
:105A3E0075206C6F6F73652025640044726177204A
:065A4E0067616D650000B8
:00000001FF
